:020000040800F2
:10000000500F002029020008D9510008DB510008D8
:10001000DF510008E3510008E7510008000000002C
:10002000000000000000000000000000EB5100088C
:10003000ED51000800000000EF510008F1510008E8
:10004000430200084302000843020008430200087C
:1000500043020008430200083B470008430200082F
:10006000430200084302000843020008430200085C
:10007000430200084302000843020008430200084C
:10008000430200084302000843020008430200083C
:10009000430200084302000843020008430200082C
:1000A00043020008F351000843020008430200081D
:1000B000430200084302000843020008430200080C
:1000C00043020008430200084302000843020008FC
:1000D00043020008F14F00080B50000825500008AB
:1000E00043020008430200084302000843020008DC
:1000F00043020008430200084302000843020008CC
:1001000043020008430200084302000843020008BB
:1001100043020008430200089D54000843020008FF
:10012000430200084302000843020008430200089B
:1001300000F002F800F063F80AA090E8000C824496
:100140008344AAF10107DA4501D100F058F8AFF273
:10015000090EBAE80F0013F0010F18BFFB1A43F0A5
:100160000103184748AE000068AE00000A444FF093
:10017000000C10F8013B13F0070408BF10F8014B06
:100180001D1108BF10F8015B641E05D010F8016B4B
:10019000641E01F8016BF9D113F0080F1EBF10F8AF
:1001A000014BAD1C0C1B09D16D1E58BF01F801CBD2
:1001B000FAD505E014F8016B01F8016B6D1EF9D555
:1001C0009142D6D37047000000230024002500266A
:1001D000103A28BF78C1FBD8520728BF30C148BFAA
:1001E0000B6070471FB506F003F9040000200021E2
:1001F00006F05AF9401C60601FBD10B510BD06F036
:10020000D2F81146FFF7EEFF04F056FF06F002F9B0
:1002100003B4FFF7F2FF03BC04F0B0FD30BF72B6C9
:1002200062B680F30888704709488047094800474C
:10023000FEE7FEE7FEE7FEE7FEE7FEE7FEE7FEE796
:10024000FEE7FEE704480549054A064B70470000F3
:100250007B4C00083101000850090020500F00209D
:10026000500B0020500B002031490143314A1160EE
:10027000704770B5002100230F22C47804B32D4CC1
:10028000246804F4E064C4F5E064210AC1F10403C5
:10029000CA40447804FA03F18478144021430901E8
:1002A000254C0678A155047804F01F050124AC40C4
:1002B00005786D11AD0005F1E025C5F8004109E0B4
:1002C000047804F01F050124AC401C4D067876111B
:1002D00045F8264070BD1A4A0A400243154B1B1FC1
:1002E0001A60704739B1134A121D12680243114B4C
:1002F0001B1D1A6006E00F4A121D126882430D4B47
:100300001B1D1A607047042808D14FF0E0210969CD
:1003100041F004014FF0E022116107E04FF0E021CD
:10032000096921F004014FF0E022116170470000DB
:100330000000FA050CED00E000E400E080E100E0E0
:1003400080FFFF1F10B50446CC48844208D101212C
:10035000042000F02DFB0021042000F029FB46E0E2
:10036000C748844208D10121082000F021FB002168
:10037000082000F01DFB3AE0C248844208D1012168
:10038000102000F015FB0021102000F011FB2EE0E2
:10039000BD48844208D10121202000F009FB002142
:1003A000202000F005FB22E0B848844208D101215A
:1003B000402000F0FDFA0021402000F0F9FA16E09C
:1003C000B348844208D10121802000F0F1FA0021D5
:1003D000802000F0EDFA0AE0AE48844207D1012106
:1003E000801500F0E5FA0021A01500F0E1FA10BD3B
:1003F00010B50121084600F0DBFA0021012000F0D1
:10040000D7FA10BD2DE9F041024600250026002054
:1004100000230024002791F803C00CF00F0591F889
:1004200003C00CF0100CBCF1000F03D091F802C017
:100430004CEA050591F800C0BCF1000F31D01468FA
:1004400000202BE04FF0010C0CFA00F3B1F800C0D3
:100450000CEA03069E4220D183004FF00F0C0CFAE9
:1004600003F7BC4305FA03FC4CEA040491F803C00B
:10047000BCF1280F06D14FF0010C0CFA00FCC2F8B9
:1004800014C00AE091F803C0BCF1480F05D14FF049
:10049000010C0CFA00FCC2F810C0401C0828D1D393
:1004A0001460B1F800C0BCF1FF0F34DD54680020C7
:1004B0002EE000F1080C4FF0010808FA0CF3B1F837
:1004C00000C00CEA03069E4221D183004FF00F0CBE
:1004D0000CFA03F7BC4305FA03FC4CEA040491F858
:1004E00003C0BCF1280F05D100F1080C08FA0CF884
:1004F000C2F8148091F803C0BCF1480F07D100F195
:10050000080C4FF0010808FA0CF8C2F81080401CE3
:100510000828CED35460BDE8F0814FF6FF7101800A
:10052000022181700421C170704702460020936847
:100530000B400BB1012000E00020704701468868A5
:1005400080B2704702460020D3680B400BB10120F7
:1005500000E0002070470146C86880B27047016122
:100560007047416170470AB1016100E04161704725
:10057000C16070474FF480320A43826181618261B9
:1005800082698269704702460020434B18684FF623
:100590008073184040EA021008433F4B18607047D0
:1005A0003E49C8617047F0B50A4600230024002187
:1005B000002500F00046B6F1004F02D1364EF16939
:1005C00001E0354E7168C0F3034583B200F4401674
:1005D000B6F5401F08D121F070612F4E766826F0E5
:1005E00070662D4F7E6012E000F48016B6F5801F15
:1005F00006D1032606FA05F4A14341F0706106E036
:10060000460D360103FA06F6B14341F0706122B19E
:10061000460D360103FA06F6314300F00046B6F106
:10062000004F02D11C4EF16101E01B4E7160F0BD24
:1006300030B500228B071C0F0F2303FA04F2164B70
:1006400008338C1053F824309343134C08348D1026
:1006500044F8253023468C1053F824308C07240F9F
:1006600000FA04F423430C4C08348D1044F8253070
:1006700030BD0A49DC3108607047000000080140C5
:10068000000C01400010014000140140001801401E
:10069000001C0140002001400000014000002042F9
:1006A000DF48006840F00100DD4908600846406806
:1006B000DC490840DA49486008460068DA490840E1
:1006C000D74908600846006820F480200860084682
:1006D000406820F4FE0048604FF41F0088607047B7
:1006E000CF49096821F48031CD4A1160114609686B
:1006F00021F480211160B0F5803F03D0B0F5802F48
:100700000ED106E0C649096841F48031C44A11603F
:1007100007E0C349096841F4A021C14A116000E023
:1007200000BF00BF704710B5014600220023002023
:100730004A11012A02D1BA4C236806E0022A02D1EA
:10074000B74C236A01E0B64C636A01F01F02012432
:1007500094401C400CB1012000E0002010BD38B5D1
:10076000002000900024002500BF3120FFF7DBFFB0
:1007700005460098401C00900098B0F5A06F01D08D
:10078000002DF2D03120FFF7CEFF08B1012400E0A8
:100790000024204638BD01460020A14A106820F000
:1007A000F80040EAC10010607047A0490860704737
:1007B000024600209A4B586820F47C1042EA01035C
:1007C0001843974B58607047984908667047014630
:1007D0000020934A506820F003000843506070479F
:1007E0008F48406800F00C007047014600208C4A9A
:1007F000506820F0F0000843506070470146002028
:10080000874A506820F4E060084350607047014612
:100810000020834A506820F4605040EAC1005060D4
:10082000704729B17E4A527A02437D4B5A7204E0E6
:100830007B4A527A82437A4B5A7270477B49D8314D
:100840000860704701460020754A506820F4404017
:100850000843506070470021714A20321170704A7D
:1008600082F82010012802D004280AD104E00121D6
:100870006B4A2032117005E00521694A203211705F
:1008800000E000BF00BF70476949086070476449D5
:10089000096A0143624A1162704765494439086038
:1008A000704730B500210022002400235C4D6D68A4
:1008B00005F00C0121B1042905D0082923D105E058
:1008C0005C4D056022E05B4D05601FE0544D6D6896
:1008D00005F47012524D6D6805F48034022505EB65
:1008E00092421CB9544D554305600BE04C4D6D6868
:1008F00005F400351DB1504D5543056002E04D4DE6
:100900005543056002E04B4D056000BF00BF444DFC
:100910006D6805F0F0010909484D6B5C0568DD4024
:1009200045603F4D6D6805F4E061090A434D6B5C1D
:100930004568DD4085603A4D6D6805F46051C90A2F
:100940003E4D6B5C4568DD40C560354D6D6805F416
:100950004041890B3A4D6B5CC568B5FBF3F5056109
:1009600030BD29B12E4A526902432D4B5A6104E031
:100970002B4A526982432A4B5A61704729B1284A4F
:1009800092690243264B9A6104E0254A92698243A8
:10099000234B9A61704729B1214AD2690243204B07
:1009A000DA6104E01E4AD26982431D4BDA61704766
:1009B00029B11B4AD2680243194BDA6004E0184A95
:1009C000D2688243164BDA60704729B1144A126923
:1009D0000243134B1A6104E0114A12698243104B1F
:1009E0001A61704712494039086070470F49C8645E
:1009F00070470B49C87170470948406A40F08070E1
:100A000007494862704701460020054A92680A403B
:100A10000AB1012000E00020704701498872704748
:100A2000001002400000FFF8FFFFF6FE0000424207
:100A30008004424200127A0000093D0000000020BC
:100A40001000002010B50446FE48844208D1012160
:100A5000C014FFF7ADFF0021E014FFF7A9FFC4E0C9
:100A6000B4F1804F08D101210846FFF7AEFF002105
:100A70000120FFF7AAFFB8E0F348844208D1012122
:100A80000220FFF7A2FF00210220FFF79EFFACE04B
:100A9000EE48844208D101210420FFF796FF00218F
:100AA0000420FFF792FFA0E0E948844208D1012129
:100AB0000820FFF78AFF00210820FFF786FF94E057
:100AC000E448844208D101211020FFF77EFF002175
:100AD0001020FFF77AFF88E0DF48844208D1012127
:100AE0002020FFF772FF00212020FFF76EFF7CE03F
:100AF000DA48844208D101214014FFF759FF002150
:100B00006014FFF755FF70E0D548844209D10121F8
:100B1000C804FFF74DFF00214FF40020FFF748FF06
:100B200063E0D048844209D101210805FFF740FF66
:100B300000214FF48010FFF73BFF56E0CA48844283
:100B400009D101214805FFF733FF00214FF40010C0
:100B5000FFF72EFF49E0C548844208D1012140201B
:100B6000FFF733FF00214020FFF72FFF3DE0C04893
:100B7000844208D101218020FFF727FF0021802037
:100B8000FFF723FF31E0BB48844208D101218015E3
:100B9000FFF71BFF0021A015FFF717FF25E0B64860
:100BA000844209D101210804FFF702FF00214FF41C
:100BB0008030FFF7FDFE18E0B048844209D10121E2
:100BC0004804FFF7F5FE00214FF40030FFF7F0FE78
:100BD0000BE0AB48844208D101218804FFF7E8FE0E
:100BE00000214FF48020FFF7E3FE10BD00220288B1
:100BF000944B98420ED0994B98420BD0B0F1804F55
:100C000008D0914B984205D0904B984202D0904B1F
:100C1000984204D14FF68F731A404B881A438D4B7C
:100C2000984207D08C4B984204D04FF6FF431A40AD
:100C3000CB881A4302808B8883850B880385814B80
:100C400098420BD0854B984208D08B4B984205D0E8
:100C50008A4B984202D08A4B984201D10B7A038684
:100C600001238382704770B5002400220023058C85
:100C70004FF6FE7635400584028C8388048B4FF650
:100C80008F752C40B51E2C400D882C43751E2A40B4
:100C90000D892A434D882A436A4DA8420BD06F4DD7
:100CA000A84208D0744DA84205D0744DA84202D085
:100CB000734DA84213D14FF6F7752A404D892A4348
:100CC0004FF6FB752A408D882A434FF6FF652B406F
:100CD0004FF6FF552B408D892B43CD892B438380C5
:100CE0000483CD888586028470BD70B500240022FF
:100CF0000023058C4FF6EF7635400584028C8388FF
:100D0000048B48F6FF752C404FF6FF452C400D88AC
:100D10004FF6FF7606EA05252C434FF6DF752A408D
:100D20000D8906EA05152A434D8806EA05152A436A
:100D3000444DA84202D0494DA8421DD14FF67F75BF
:100D40002A404D894FF6FF7606EA05152A434FF6ED
:100D5000BF752A408D8806EA05152A434FF6FF35F0
:100D60002B404FF2FF752B408D8906EA85052B43FA
:100D7000CD8906EA85052B4383800483CD880587CA
:100D8000028470BD70B5002400220023058C4FF64C
:100D9000FF6635400584028C8388848B4FF68F75FF
:100DA0002C404FF6FC752C400D882C434FF6FF5518
:100DB0002A400D894FF6FF7606EA05252A434D881D
:100DC00006EA05252A431F4DA84202D0234DA8421A
:100DD0001DD14FF2FF752A404D894FF6FF7606EA86
:100DE00005252A434FF6FF352A408D8806EA05255A
:100DF0002A434EF6FF752B404DF6FF752B408D892B
:100E000006EA05152B43CD8906EA05152B43838099
:100E10008483CD888587028470BD70B5002200234D
:100E20000024058C4EF6FF7635400584038C8488BB
:100E3000828B48F6FF752A404FF6FF452A400D8801
:100E400020E00000002C01400004004000080040A9
:100E5000000C00400010004000140040003401402D
:100E6000004C014000500140005401400018004077
:100E7000001C0040002000400040014000440140B0
:100E8000004801404FF6FF7606EA05252A434DF655
:100E9000FF752B400D8906EA05352B434D8806EA80
:100EA00005352B43FA4DA84202D0FA4DA84208D18D
:100EB0004BF6FF752C408D894FF6FF7606EA8515B7
:100EC0002C4384808283CD88A0F84050038470BD79
:100ED000828B4FF2FF331A408283828B4FF6FF736F
:100EE00003EA01231A4382837047F0B50C46154686
:100EF000002200210026078C4EF6FF7C07EA0C0733
:100F00000784828B018C4FF6FF7707EA043640F6A0
:100F1000FF473A404FF6FF7707EA05273A434FF677
:100F2000FF7707EA03373A43D94FB8420ED0D94F7B
:100F3000B8420BD0B0F1804F08D0D74FB84205D09F
:100F4000D64FB84202D0D64FB84206D14DF6FF7701
:100F5000394046F48057394305E047F6FF5739409A
:100F600044F48057394382830184F0BD828B4FF66D
:100F7000F3731A408283828B0A4382837047F0B5F1
:100F80000C461546002200210026078C4FF6FF6C08
:100F900007EA0C070784828B018C4FF6FF7707EA7C
:100FA00004264FF60C773A404FF6FF7707EA03170F
:100FB0002F433A43B64FB8420ED0B64FB8420BD08B
:100FC000B0F1804F08D0B44FB84205D0B34FB8420B
:100FD00002D0B34FB84206D14FF6FF57394046F41E
:100FE0008077394305E04FF2FF57394044F480776A
:100FF000394382830184F0BD028B4FF2FF331A40E4
:101000000283028B4FF6FF7303EA01231A43028324
:101010007047F0B50C461546002200210026078CCB
:101020004FF6EF7C07EA0C070784028B018C4FF622
:10103000FF7707EA041640F6FF473A404FF6FF777E
:1010400007EA03373A434FF6FF7707EA05273A43A3
:101050008F4FB8420ED08F4FB8420BD0B0F1804FB7
:1010600008D08D4FB84205D08C4FB84202D08C4F7B
:10107000B84206D14FF6DF77394046F010073943C2
:1010800005E04FF65F77394044F01007394302839B
:101090000184F0BD028B4FF6F3731A400283028B7A
:1010A0000A4302837047F0B50C4615460022002122
:1010B000068C4FF6FE773E400684028B018C4FF67D
:1010C0000C7632407E1C06EA03162E433243704EE5
:1010D000B0420ED06F4EB0420BD0B0F1804F08D06E
:1010E0006D4EB04205D06D4EB04202D06C4EB04253
:1010F00006D14FF6FD76314044F00106314305E05C
:101100004FF6F576314044F0010631430283018405
:10111000F0BD70B505460C465D4885420ED05D4871
:1011200085420BD0B5F1804F08D05B48854205D091
:101130005A48854202D05A48854200D100E000BF9B
:10114000208850B92389A28861882846FFF7ABFF21
:10115000E1882846FFF79EFF25E0208804280AD171
:101160002389A28861882846FFF753FFE188284633
:10117000FFF742FF17E0208808280AD12389A288B8
:1011800061882846FFF7FBFEE1882846FFF7EEFE60
:1011900009E02389A28861882846FFF7A6FEE18836
:1011A0002846FFF795FE70BD2DE9F04105460C4637
:1011B00000260127608808B9022600E00026A088E2
:1011C000012801D1022700E001272088A0B9238946
:1011D000A28861882846FFF766FFE1882846FFF766
:1011E00059FF23893A4631462846FFF712FFE18826
:1011F0002846FFF701FF13E02389A288618828466B
:10120000FFF707FFE1882846FFF7F6FE23893A46F5
:1012100031462846FFF747FFE1882846FFF73AFFA7
:10122000BDE8F0810A884B881A438B881A43CB8823
:101230001A430B891A434B891A438B891A43A0F826
:10124000442070474FF6FF71818000210180C180EA
:101250004180017270470021018041808180C180FE
:10126000018141818181C1817047002101804180DC
:10127000012181800021C18001817047002101800E
:1012800041808180C180018141818181704700005E
:10129000002C0140003401400004004000080040E0
:1012A000000C004021B1028842F00102028004E0FB
:1012B00002884FF6FE731A400280704731B1B0F8D1
:1012C000442042F40042A0F8442005E0B0F8442055
:1012D000C2F30E02A0F8442070471AB183890B4371
:1012E000838102E083898B438381704781827047C9
:1012F00041EA0203A0F8483070471AB183890B43D2
:10130000838102E083898B438381704701894FF693
:10131000F8721140018170470A46002101894FF699
:101320008F73194011430181704730B504460D4653
:1013300029462046FFF7F0FF208940F00700208172
:1013400030BD2DE9F04104460D4616461F46602D7E
:1013500006D13B46012231462046FFF75AFE05E002
:101360003B46012231462046FFF79DFE2946204696
:10137000FFF7D2FF208940F007002081BDE8F0810F
:1013800030B50C4600210189C9B24FF6FF7505EA58
:101390000325154325432943018130BD2DE9F04143
:1013A00005460E4617469846002443463A463146BF
:1013B0002846FFF7E5FF2C894FF6F870044044F00B
:1013C00007044FF68F70044044F070042C81BDE890
:1013D000F081F0B504460D4616461F463B463246A0
:1013E00029462046FFF7CCFF208940F48040208129
:1013F000F0BD0185828270470A46002101884FF6C0
:101400008F731940114301807047F0B50C461546A3
:101410001E460021002200230189028B038C4FF617
:10142000F877394021434FF6FC473A4040F2011724
:101430003A434FF6DD773B404FF6FF7707EA061752
:101440002F433B43018102830384F0BD0A46002100
:10145000018B4FF68F7319401143018370470A4681
:101460000021018B48F6FF7319404FF6FF7303EA22
:1014700002231943018370470A460021818B4FF6EE
:101480008F7319401143818370470A460021818B75
:1014900048F6FF7319404FF6FF7303EA022319431E
:1014A0008183704721B1028842F08002028004E00B
:1014B00002884FF67F731A400280704721B18288FC
:1014C00042F00402828004E082884FF6FB731A40E7
:1014D0008280704721B1828842F00802828004E055
:1014E00082884FF6F7731A408280704721B1828854
:1014F00042F00102828004E082884FF6FE731A40B7
:10150000828070470A460021018B4FF6F77319401D
:101510001143018370470A460021018B4FF2FF738C
:1015200019404FF6FF7303EA022319430183704702
:101530000A460021818B4FF6F773194011438183CE
:1015400070470A460021818B4FF2FF7319404FF616
:10155000FF7303EA02231943818370470A4600217F
:10156000018B4FF6FB7319401143018370470A4604
:101570000021018B4FF6FF3319404FF6FF7303EA4A
:1015800002231943018370470A460021818B4FF6DD
:10159000FB7319401143818370470A460021818BF8
:1015A0004FF6FF3319404FF6FF7303EA0223194346
:1015B000818370470A460021018B4FF67F731940E3
:1015C0001143018370470A460021018BC1F30E01CC
:1015D0004FF6FF7303EA02231943018370470A465B
:1015E0000021818B4FF67F7319401143818370472F
:1015F0000A460021818BC1F30E014FF6FF7303EA07
:1016000002231943818370470A460021018C4FF65B
:10161000FD7319401143018470470A460021018C73
:101620004FF6F77319401143018470470A460021B1
:10163000018C4FF6DF7319404FF6FF7303EA021374
:101640001943018470470A460021018C4FF67F73CD
:1016500019404FF6FF7303EA0213194301847047E0
:101660000A460021018C4FF6FF5319404FF6FF73D5
:1016700003EA02231943018470470A460021018CC2
:101680004FF2FF7319404FF6FF7303EA0223194329
:10169000018470470A460021018C4DF6FF73194002
:1016A0004FF6FF7303EA023319430184704730B5E4
:1016B000002301248C40A3B2048C9C430484048C3A
:1016C00002FA01F5ADB22C43048430BD30B50023DD
:1016D00004248C40A3B2048C9C430484048C02FA3E
:1016E00001F5ADB22C43048430BD70B50346002033
:1016F00000241846183001258D40ACB21D8CA5433E
:101700001D8409B1082909D100EB6100056825F0A5
:10171000700505600568154305600EE00D1FC5F3F3
:101720004E052844056825F4E045056005684FF638
:10173000FF7606EA02263543056070BD21B10288B6
:1017400042F00202028004E002884FF6FD731A4064
:101750000280704721B1028842F00402028004E056
:1017600002884FF6FB731A400280704721B18288CD
:1017700042F08002828004E082884FF67F731A4034
:101780008280704702884FF6F7731A400280028801
:101790000A430280704782884FF68F731A40828016
:1017A00082880A438280704702894FF6F8731A4094
:1017B000028102890A430281704702894FF67F73D2
:1017C0001A40028102890A4302817047818470476E
:1017D0008185704781867047018770478187704790
:1017E000A0F84010704702884FF6FF431A4002806D
:1017F00002880A43028070470146888E704701467E
:10180000088F70470146888F70470146B1F8400045
:1018100070470146888C70470146088D7047024624
:101820000020138A0B400BB1012000E0002070471C
:10183000CA430282704730B50246002000230024CC
:10184000158A05EA0103958905EA010413B10CB173
:10185000012000E0002030BDCA4302827047000032
:1018600010B50446FB48844209D101218803FFF7E3
:101870009FF800214FF48040FFF79AF832E0F648D5
:10188000844209D101214804FFF79FF800214FF459
:101890000030FFF79AF825E0F048844209D1012191
:1018A0008804FFF792F800214FF48020FFF78DF8AD
:1018B00018E0EB48844209D10121C804FFF785F8FC
:1018C00000214FF40020FFF780F80BE0E548844248
:1018D00008D101210805FFF778F800214FF48010A6
:1018E000FFF773F810BD2DE9F04786B005460E46A8
:1018F0000024A24600BFA1460027B08900B100BF66
:101900002F462C8A4CF6FF700440F08804432C824A
:10191000AC894EF6F3100440B088318908437189D0
:1019200008430443AC81AC8A4FF6FF400440B089C1
:101930000443AC8201A8FEF7B4FFC648874202D137
:10194000DDF810A001E0DDF80CA0A88900F400404B
:1019500040B10AEBCA0000EB0A1031684900B0FB45
:10196000F1F807E00AEBCA0000EB0A1031688900C1
:10197000B0FBF1F86420B8FBF0F004012009642109
:1019800001FB1089A88900F4004040B1322000EB2F
:10199000C900B0FBF1F000F00700044308E032207A
:1019A00000EB09106421B0FBF1F000F00F000443DC
:1019B0002C8106B0BDE8F0874FF41651016000217C
:1019C0008180C18001810C2141810021818170478A
:1019D00010B502460020108A4FF2FF0318400B8812
:1019E0004C8823438C882343CC882343184310829C
:1019F00010BD0021018041808180C180704721B1EC
:101A0000828942F40052828104E082894DF6FF739C
:101A10001A4082817047F0B5034600240026002555
:101A2000002040F66A17B94200D100BF1846C1F342
:101A3000421401F01F06012707FA06F5012C01D117
:101A40000C3004E0022C01D1103000E014301AB147
:101A500007682F43076002E00768AF430760F0BDE7
:101A60001AB1838A0B43838202E0838A8B43838289
:101A70007047028A4FF6F0731A400282028A0A43C4
:101A80000282704782894FF2FF731A4082818289F5
:101A90000A438281704721B1828942F00202828129
:101AA00004E082894FF6FD731A4082817047028AF2
:101AB0004FF6DF731A400282028A0A43028270479D
:101AC00021B1028A42F48042028204E0028A4BF68B
:101AD000FF731A4002827047C1F308028280704788
:101AE00001468888C0F308007047818941F00101F0
:101AF00081817047028BD2B20283028B42EA0122BB
:101B000002837047028B02F47F420283028B0A43F6
:101B10000283704721B1828A42F02002828204E06F
:101B2000828A4FF6DF731A408282704721B1828A1F
:101B300042F01002828204E0828A4FF6EF731A406C
:101B40008282704721B1828A42F00802828204E0D8
:101B5000828A4FF6F7731A408282704721B18289D8
:101B600042F40042828103E08289C2F30E02828144
:101B7000704721B1828A42F40062828204E0828A44
:101B80004FF2FF731A4082827047828A4FF6FB73CE
:101B90001A408282828A0A438282704721B1828AF5
:101BA00042F00202828204E0828A4FF6FD731A40FC
:101BB0008282704702460020B1F5007F00D100BF4D
:101BC00013880B400BB1012000E00020704701F4A6
:101BD0000072B2F5007F00D100BFCA430280704797
:101BE00070B50246002400230025002040F66A1646
:101BF000B14200D100BFC1F3421501F01F0301261D
:101C000006FA03F3012D02D19689334006E0022D36
:101C100002D1168A334001E0968A33400C12012625
:101C200006FA04F41688344013B10CB1012000E028
:101C3000002070BD10B50022002340F66A14A142B6
:101C400000D100BF0A1201249440A3B2DC430480F7
:101C500010BD000000380140004400400048004032
:101C6000004C00400050004008B54FF4A060FEF763
:101C7000FBFA19208DF8000000208DF801000320E8
:101C80008DF8020001208DF803006846FEF7F1FA96
:101C900008BD0EB50121C802FEF770FE3648FEF7FA
:101CA000D1FE40F6C910ADF804004720ADF80000A1
:101CB0000020ADF80600ADF802008DF80800694676
:101CC0002D48FEF793FF01212B48FFF7B1FD0122BC
:101CD00011462948FFF701FB00212748FFF7E2FAE8
:101CE0000EBD70B505460C462448C06940F0100092
:101CF0002249C861224885850485808940F0010019
:101D00001F4988810846008840F0010008800223AE
:101D100036220321012002F0FDFD70BD174AD26971
:101D200042F02002154BDA61164A1080121F118012
:101D3000144A203A128822F00102124B203B1A80EA
:101D4000104A2C3A128822F001020E4B2C3B1A80CA
:101D5000704710B5FFF788FFFFF79BFF10BD10B568
:101D600001210548FFF79EFA10BD10B50021024879
:101D7000FFF798FA10BD0000002C0140001002404F
:101D8000001000402C14004008B501210820FEF787
:101D9000F5FD4FF40070ADF8000028208DF8030029
:101DA00069467748FEF72EFB01210820FEF7E6FD85
:101DB0004FF42140ADF8000010208DF803000320FF
:101DC0008DF8020069466E48FEF71CFB08BD38B569
:101DD00004460120009000206A49487001200090CC
:101DE0002EE0BDF80000204018B1012066490860CF
:101DF00002E0002064490860012063490839086056
:101E00000A2002F04AFD00206049C1F8B4010A200E
:101E100002F043FD01205D49C1F8B4010846D0F845
:101E2000240130B157484078BDF8001008435549A7
:101E30004870BDF800004FF6FF7101EA40000090C5
:101E4000BDF80000FF28CCDD38BD10B500204E499C
:101E50001C3908604E490878FFF7B9FF4C494878AB
:101E6000FFF7B5FF01204949C1F8A0014548407876
:101E7000732801D1002010BD0120FCE71CB5002013
:101E800001900120009000203F491C390860404922
:101E90000878FFF79CFF3E494878FFF798FF02203B
:101EA000019033E00120009024E0012036490839F8
:101EB000086000203549C1F8B4010A2002F0EDFCA9
:101EC00001203249C1F8B4010846D0F8240150B1CC
:101ED0002C489DF80410405CBDF8001008432949C7
:101EE0009DF804208854BDF800004FF6FF7101EA08
:101EF00040000090BDF80000FF28D6DD0A2002F067
:101F0000CCFC9DF80400401CC0B201909DF8040078
:101F10000928C7DB01201C491C3908601CBD0020B2
:101F200004E00021174A1154411CC8B20928F8DB0B
:101F3000704710B5FFF7F3FFFFF7A0FF1148C07817
:101F40001049097940EA01201249088000240FE075
:101F5000114810F81400401E012101FA00F00D494B
:101F60000988084010B9601CC0B210BD601CC4B222
:101F7000102CEDDB0020F8E701460248405C70477A
:101F8000000C01400C020020BC8121420080214253
:101F900016000020140000201800002008B50121C0
:101FA0000820FEF7EBFC4FF48050ADF80000102045
:101FB0008DF8030003208DF8020069461A48FEF7E9
:101FC00021FA4FF480511848FEF7CBFA08BD10B53E
:101FD0004FF480511448FEF7C2FAC82002F06BFC9F
:101FE0004FF480511048FEF7BCFAC82002F063FCA1
:101FF00010BD70B50446002500BF11E04FF48051BC
:102000000948FEF7ACFA962002F055FC4FF48051D7
:102010000548FEF7A6FA962002F04DFC681CC5B2F2
:10202000A542EBDB70BD0000000C014010B504467A
:102030000622FEA1204604F0CFF828B10422FDA11B
:10204000204604F0C9F808B9012010BD0020FCE7C3
:1020500010B504460622F9A1204604F0BDF828B1C7
:102060000422F8A1204604F0B7F808B9012010BDF9
:102070000020FCE710B504460622F4A1204604F037
:10208000ABF828B10422F3A1204604F0A5F808B962
:10209000012010BD0020FCE710B504460622EFA188
:1020A000204604F099F828B10422EEA1204604F05D
:1020B00093F808B9012010BD0020FCE710B50446D4
:1020C0000422EAA1204604F087F808B9012010BDD7
:1020D0000020FCE710B504460422E6A1204604F0E7
:1020E0007BF808B9012010BD0020FCE710B50446BC
:1020F0000422E2A1204604F06FF808B9012010BDC7
:102100000020FCE710B504460422DEA1204604F0BE
:1021100063F808B9012010BD0020FCE710B50446A3
:102120000422DAA1204604F057F808B9012010BDB6
:102130000020FCE710B504460622D6A1204604F094
:102140004BF8B8B10622D5A1204604F045F888B175
:102150000622D4A1204604F03FF858B10622D3A1AC
:10216000204604F039F828B10422D2A1204604F018
:1021700033F808B9012010BD0020FCE710B5044673
:102180000522CEA1204604F027F808B9012010BD91
:102190000020FCE710B504460522CAA1204604F041
:1021A0001BF808B9012010BD0020FCE710B504465B
:1021B0000522C6A1204604F00FF808B9012010BD81
:1021C0000020FCE710B504460522C2A1204604F019
:1021D00003F808B9012010BD0020FCE710B5044643
:1021E0000522BEA1204603F0F7FF08B9012010BD6B
:1021F0000020FCE710B504460522BAA1204603F0F2
:10220000EBFF08B9012010BD0020FCE710B5044623
:102210000222B6A1204603F0DFFF08B9012010BD5D
:102220000020FCE770B506463446B1A1304603F005
:10223000C1FF04465CB12D21204603F0B1FF0446E6
:10224000641C204603F09FFF0546AA490D7070BD2F
:1022500070B506463446A8A1304603F0ABFF0446ED
:102260005CB12D21204603F09BFF0446641C2046F0
:1022700003F089FF0546A1490D7070BD70B5064693
:1022800034468EA1304603F095FF04465CB12D2103
:10229000204603F085FF0446641C204603F073FFCC
:1022A000054697494D8070BD70B50646344685A1F8
:1022B000304603F07FFF04465CB12D21204603F039
:1022C0006FFF0446641C204603F05DFF05468C4901
:1022D0008D8070BD70B5064634467CA1304603F053
:1022E00069FF04465CB12D21204603F059FF0446E6
:1022F000641C204603F047FF05468149CD8070BD30
:1023000070B50646344673A1304603F053FF0446C9
:102310005CB12D21204603F043FF0446641C204697
:1023200003F031FF054676490D8170BD70B5064654
:1023300034466AA1304603F03DFF04465CB12D21CE
:10234000204603F02DFF0446641C204603F01BFFCB
:1023500005466B494D8170BD70B50646344661A196
:10236000304603F027FF04465CB12D21204603F0E0
:1023700017FF0446641C204603F005FF054660492C
:102380008D8170BD2DE9FE4F054600260027B04621
:10239000B146B246B346002002900190009000245E
:1023A00008E1029801280ED1285D502809D0285D47
:1023B000303800F0FF0906EB860009EB4000C6B29A
:1023C00001E0002002900198012824D1285D5428C2
:1023D00001D0012000E00020295D232901D0012146
:1023E00000E00021084040B1285D303800F0FF0ACD
:1023F00007EB87000AEB40070DE00020019040F654
:10240000C410874200D907463E4921F816703E485D
:102410000660002700260098012806D1285D303884
:1024200000F0FF0B08EB880070E08EE03C42555056
:10243000443E000042555044000000003C42444EDF
:10244000443E000042444E44000000003C424C54D4
:10245000443E0000424C5444000000003C425254B0
:10246000443E0000425254440000000042554144A2
:102470000000000042554D440000000042554B440E
:102480000000000042555344000000004255534EE6
:10249000000000003C424C54553E00003C42444E7B
:1024A000553E00003C425550553E00003C425254BF
:1024B000553E000042535444000000003C53555028
:1024C0002D0000003C534C542D0000003C53444E62
:1024D0002D0000003C5352542D0000003C53444C4E
:1024E0002D0000003C5344522D0000003C580000D9
:1024F0003C582D00B2000020592D0000B3000020F0
:102500004E00002038000020480000200BEB40085F
:102510006349A1F80080601C285C0D283AD1B8F10D
:10252000640F13D8084640885E4908805C4880885C
:1025300048805B48C088888059480089C8805848CE
:102540004089088156488089488123E054480288A0
:102550004188002000F0ACF85148028881880120B1
:1025600000F0A6F84E480288C188022000F0A0F8CA
:102570004B4802880189032000F09AF848480288F5
:102580004189042000F094F845480288818905209B
:1025900000F08EF8285D232801D101200290285DEB
:1025A000502801D101200190285D542801D101203B
:1025B0000090641C285D0A2803D0B4F5FA7FFFF46C
:1025C000F0AEBDE8FE8F10B504462046FFF72EFDA5
:1025D000002859D12046FFF73BFD002854D1204662
:1025E000FFF748FD00284FD12046FFF755FD002892
:1025F0004AD12046FFF79EFD002845D12046FFF72F
:10260000BDFD18B12046FFF739FE3DE02046FFF73B
:10261000C1FD18B12046FFF747FE35E02046FFF721
:10262000C5FD18B12046FFF755FE2DE02046FFF707
:10263000C9FD18B12046FFF763FE25E02046FFF7ED
:10264000CDFD18B12046FFF771FE1DE02046FFF7D3
:10265000D1FD18B12046FFF77FFE15E02046FFF7B9
:102660002DFD88B92046FFF735FD68B92046FFF7F4
:10267000CDFD30B12046FFF7D5FD2046FFF7E8FD40
:1026800002E02046FFF77EFE10BD10B50648007838
:1026900028B10020044908700448FFF794FF10BDDA
:1026A000380000204E000020A40000203806002042
:1026B00010B500B9D0B9072818D8B1F5FA7F15D3ED
:1026C00040F6C413994211D8142A00D2142247F2BA
:1026D00030539A4200D91A46C44C24F81010C44C06
:1026E00022800123C34C2370C34C237010BD70B5EE
:1026F000C0480078002848D00020BE490870BC4877
:102700000088142190FBF1F0BC490880002437E0D8
:10271000B64830F81400BA4931F81410884213DD75
:10272000B24931F81410B64A32F81420881A04F06D
:1027300077FBB44941F82400084650F8240080F0A3
:10274000004041F824000BE0AD4931F81410A74ACD
:1027500032F81420881A04F063FBAA4941F82400D7
:10276000A648008804F074FB0546A64951F82400E9
:10277000294604F023FAA34941F82400601CC4B29E
:10278000082CC5DB0120A04908709F48007870B371
:102790009A480088401E99490880002425E09748FF
:1027A000008858B9914830F81400954921F8140070
:1027B0000020954908709049087014E08F480088FF
:1027C00004F046FB06468F4850F82410304604F0CB
:1027D00087FB054604F0E8FA844931F814100844F0
:1027E000874921F81400601CC4B2082CD7DB70BDE7
:1027F00081480078704708B501210520FEF7BEF832
:1028000001218248FDF7CFFE01218148FDF7CBFE73
:102810004FF4F040ADF8000003208DF802001020C6
:102820008DF8030069467B48FDF7ECFD0121082087
:10283000FEF7A4F84FF48040ADF8000003208DF8B7
:10284000020010208DF8030069467348FDF7DAFD99
:1028500001212020FEF792F80420ADF800000320AB
:102860008DF8020010208DF8030069466B48FDF7D3
:10287000C9FD08BD10B56A480078112875D2DFE897
:1028800000F0A909121E27333C48515D67757F8C03
:1028900091999E005A4800886249088049145D4811
:1028A000FDF75DFE97E05648008840F6C911081A0A
:1028B0005C49088049145748FDF753FE8BE05048A7
:1028C000408858490880C9145248FDF748FE82E004
:1028D0004B48408840F6C911081A52490880C9146B
:1028E0004C48FDF73EFE76E0454880884D4908801B
:1028F00089144848FDF733FE6DE04148808840F672
:10290000C911081A4749088089144248FDF729FE71
:1029100061E03B48C0884349088004213F48FDF7F7
:102920001EFE58E03648C08840F6C911081A3D49D5
:10293000088004213948FDF714FE4CE03048008936
:10294000384908804FF480413248FDF708FE42E0E4
:102950002B48008940F6C911081A324908804FF403
:1029600080412C48FDF7FDFD35E033E024484089E7
:102970002C4908804FF480412748FDF7F0FD2AE0FC
:102980001F48408940F6C911081A264908804FF4AB
:1029900080412148FDF7E5FD1DE019488089214966
:1029A000088018E01648808940F6C911081A1D49A8
:1029B000088010E01248C0891A4908800BE01048CE
:1029C000C08940F6C911081A164908800020144928
:1029D000087000E000BF00BF10BD10B510480078BF
:1029E000401C0F490870FFF745FF10BD5E00002036
:1029F000700000206E0000204D00002074000020B8
:102A00004E0000201802002072000020000230005A
:102A10000004300000080140000C01400014014097
:102A20004C0000202C2C0140924AD26942F008024E
:102A3000904BDA611A46926942F004029A618E4A1A
:102A400012686FF30F028C4B1A601A4612684BF62D
:102A5000BB331A43884B1A60884A1080121F1180BA
:102A6000864A143A128842F06002844B143B1A8062
:102A70001A46128842F4C0421A801A1D128842F087
:102A800060021B1D1A801A46128842F4C0421A8046
:102A90001A1F128842F008021B1F1A801A46128859
:102AA00042F400621A801A1D128842F008021B1DAF
:102AB0001A801A46128842F400621A801A1D12887F
:102AC00042F001021B1D1A801A46128842F01002C1
:102AD0001A801A46128842F480721A801A461288A6
:102AE00042F480521A80DA13644B2C3B1A801A4647
:102AF000128842F001021A80704700B5012141F2AC
:102B00009310FFF791FF00205C4908310880091DF0
:102B10000880091D0880091D08805648806940F01A
:102B20001000544988615648006856490840544985
:102B3000086008460068544908435149086008463F
:102B4000C06840F03C00C8604A48806940F004001A
:102B5000484988614A48406820F0FF004849486079
:102B60000846406840F0330048600846C06840F4BA
:102B70004070C8603F48806940F008003D49886166
:102B80004248006820F47F00404908600846006819
:102B900040F44C1008603D480C30006840F03000B4
:102BA0003A490C31086000BD30B500280ADD002428
:102BB000374D2C600124374DC5F890412F4D0C3511
:102BC00028800AE00124324D2C600024314DC5F8E4
:102BD00090414442294D0C352C8000290BDD002406
:102BE0002B4D083D2C6001242A4DC5F88841234D0A
:102BF000083529800BE00124254D083D2C60002478
:102C0000244DC5F888414C421C4D08352C80002AC3
:102C10000ADD0024204D2C600124204DC5F8904190
:102C2000164D14352A800AE001241B4D2C60002427
:102C30001A4DC5F890415442104D14352C80002B8C
:102C40000BDD0024124D0C352C600124114DC5F80C
:102C5000A4410A4D10352B800BE001240C4D0C359E
:102C60002C6000240B4DC5F8A4415C42034D103587
:102C70002C8030BD00100240000801402C0C0040A8
:102C800000100140FF0000FF00333300000C014042
:102C9000940122420000224294812142008021427C
:102CA0005E48806940F004005C4988615C480068C7
:102CB00020F470205A4908605848806940F4007038
:102CC000564988610846C06840F40070C8600846EC
:102CD000C06820F40070C8600846406820F4404096
:102CE00048600846406840F4004048604D4800682D
:102CF0004D4908404B49086008460068086008468E
:102D0000006820F480700860081D006820F0020050
:102D1000091D08600846006820F460200860084625
:102D2000006840F4602008600846006840F48010A5
:102D300008600846006820F40060086039482830C0
:102D4000006820F4700037492831086008460068A0
:102D5000086034480C30006820F0030031490C3121
:102D600008600846006840F0380008602D48001DE3
:102D7000006840F001002B49091D08600846006802
:102D800040F00800086000BF2648001D006800F001
:102D900008000028F8D12348001D006840F0040016
:102DA0002049091D086000BF1E48001D006800F092
:102DB00004000028F8D1704701461A4830300068F6
:102DC00020F01F00174A3032106010460068084398
:102DD00010601448001D006840F48000114A121D64
:102DE000106000BF0F48001F006800F002000028BC
:102DF000F8D00C484830006880B2704710B5042005
:102E0000FFF7DAFF00EB401000EB400101EBC003DD
:102E1000D81703EB10500413204610BD00100240D9
:102E20000008014004240140FFFFF00008B5012123
:102E30001020FDF7A3FD0120ADF8000048208DF81B
:102E4000030069460148FDF7DDFA08BD00100140A6
:102E5000A348406820F47060A14948600846406873
:102E600040F44070486000209E4908609E49C1F8C7
:102E7000A80101209B4908609B49C1F8A80170473F
:102E800000B500229648406820F47060944948607C
:102E90000846406840F40060486001209149091FDD
:102EA00008609149C1F8AC0107E0501CC2B2FA2A8F
:102EB00003DDFFF7CDFF012000BD8A48843800689C
:102EC0000028F2D18749086000BFF5E710B5034636
:102ED0008348406820F47060814948600846406833
:102EE00040F44070486000207E49086000240EE0F5
:102EF000D8097C49091F08605806030E01207A4949
:102F0000C1F8AC01002077490860601CC4B2082CED
:102F1000EEDBFFF7B5FF10BD7148406820F470602C
:102F20006F4948600846406840F44070486001209E
:102F30006C49091F08606C49C1F8AC01002069495F
:102F4000091F08606849C1F8AC01704710B5044614
:102F5000FFF7E2FF7820FFF7B9FF0020FFF7B6FF89
:102F60002046FFF7B3FFFFF773FF10BD30B50446EF
:102F70000D4605F1B001C8B2FFF7E8FF102141EAA4
:102F80001410FFF7E3FF04F00F00FFF7DFFF30BD81
:102F900010B50446FFF7C0FF7820FFF797FF4020E9
:102FA000FFF794FF2046FFF791FFFFF751FF10BD99
:102FB00070B50646002415E004F1B001C8B2FFF771
:102FC000C5FF0120FFF7C2FF1020FFF7BFFF00255C
:102FD00004E03046FFF7DCFF681CC5B2802DF8DB4B
:102FE000601CC4B2082CE7DB70BD10B53F48806997
:102FF00040F001003D4988610846806940F01000BA
:1030000088613748406820F47F4035494860084669
:10301000406840F44C5048600846C06840F4406046
:10302000C860642001F047FCAE20FFF78FFF00204E
:10303000FFF78CFF1020FFF789FF4020FFF786FF86
:103040008120FFF783FFCF20FFF780FFA120FFF74C
:103050007DFFC820FFF77AFFA620FFF777FFA820A3
:10306000FFF774FF3F20FFF771FFD320FFF76EFFDC
:103070000020FFF76BFFD520FFF768FF8020FFF7E8
:1030800065FFD920FFF762FFF120FFF75FFFDA202D
:10309000FFF75CFF1220FFF759FFDB20FFF756FF19
:1030A0004020FFF753FF2020FFF750FF0220FFF7DB
:1030B0004DFF8D20FFF74AFF1420FFF747FFA420A4
:1030C000FFF744FFA620FFF741FFAF20FFF73EFFC9
:1030D0000020FFF76DFF00210846FFF747FF10BDF6
:1030E00000100140AC0122420000224200100240C8
:1030F00070B5044621460020FFF738FF002507E0A1
:10310000F84901EBC411485DFFF742FF681CC5B2E6
:10311000802DF5DB70BD10B50020FFF7E9FF012021
:10312000FFF7E6FF0220FFF7E3FF0320FFF7E0FFD2
:103130000420FFF7DDFF0520FFF7DAFF0620FFF789
:10314000D7FF0720FFF7D4FF10BD00200FE00021BC
:1031500009E0E54A02EB8012525CE24B03EBC0133C
:103160005A544A1CD1B24029F3DB421CD0B2082881
:10317000EDDB704770B503461546802B00DB70BD54
:10318000402900DBFBE7CC1001F00702D54E06EB2F
:10319000C416F05C25B1012D06D0022D0ED108E039
:1031A00001269640B0430AE0012696400643F0B25D
:1031B00005E0012696404640F0B200E000BF00BFA7
:1031C000C84E06EBC416F05400BFD8E72DE9FF4FF8
:1031D00081B08046894615460498012803D183466C
:1031E0004FF0000A03E04FF0000B4FF0010A202DD2
:1031F00001DB7F2D00DD2025A5F12000C5B20024D4
:1032000037E0002631E005EBC500B84901EB80004E
:1032100004EB440106EB8101405C0090002720E0B4
:10322000009800F0800058B109EB070202EBC402DD
:10323000D1B208EB0602D0B25A46FFF79BFF0AE074
:1032400009EB070202EBC402D1B208EB0602D0B2CE
:103250005246FFF78FFF00984006000E0090781C42
:10326000C7B2082FDCDB701CC6B20C2ECBDB601C97
:10327000C4B2032CC5DB05B0BDE8F08F2DE9FF4FCC
:1032800081B08046894615460498012803D18346BB
:103290004FF0000A03E04FF0000B4FF0010A202D21
:1032A00001DB7F2D00DD2025A5F12000C5B2002423
:1032B00037E0002631E0C5EB05108D4901EB4000F9
:1032C00004EB840106EB4101405C0090002720E004
:1032D000009800F0800058B109EB070202EBC4022D
:1032E000D1B208EB0602D0B25A46FFF743FF0AE01C
:1032F00009EB070202EBC402D1B208EB0602D0B21E
:103300005246FFF737FF00984006000E0090781CE9
:10331000C7B2082FDCDB701CC6B20A2ECBDB601CE8
:10332000C4B2032CC5DB05B0BDE8F08F2DE9FF4F1B
:103330000746884615460398012803D182464FF078
:10334000000903E04FF0000A4FF00109202D01DBD6
:103350007F2D00DD2025A5F12000C5B2002424E04A
:10336000644800EB051010F804B0002619E00BF0DB
:10337000800040B108EB0402D1B2BA19D0B2524673
:10338000FFF7F8FE07E008EB0402D1B2BA19D0B299
:103390004A46FFF7EFFE4FEA4B604FEA106B701C96
:1033A000C6B2082EE3DB601CC4B2102CD8DBBDE82B
:1033B000FF8F2DE9FF4F07468846154603980128E1
:1033C00003D182464FF0000903E04FF0000A4FF0AE
:1033D0000109202D01DB7F2D00DD2025A5F1200036
:1033E000C5B2002426E0C5EBC500434901EB40000F
:1033F00010F804B0002619E00BF0800040B108EB93
:103400000402D1B2BA19D0B25246FFF7B3FE07E0B8
:1034100008EB0402D1B2BA19D0B24A46FFF7AAFEAD
:103420004FEA4B604FEA106B701CC6B2072EE3DB0D
:10343000601CC4B20E2CD6DBBDE8FF8F2DE9FF4F18
:103440000746884615460398012803D182464FF067
:10345000000903E04FF0000A4FF00109202D01DBC5
:103460007F2D00DD2025A5F12000C5B2002426E037
:1034700005EB4500214901EB800010F804B000265F
:1034800019E00BF0800040B108EB0402D1B2BA1988
:10349000D0B25246FFF76EFE07E008EB0402D1B24D
:1034A000BA19D0B24A46FFF765FE4FEA4B604FEAC1
:1034B000106B701CC6B2062EE3DB601CC4B20C2C71
:1034C000D6DBBDE8FF8F2DE9FC4F80460E46154642
:1034D0009B460096BBF1010F12D14FF0010A4FF04D
:1034E000000911E038020020C67100082AA2000875
:1034F000EA960008EA900008AA8B00082A870008CC
:103500004FF0000A4FF00109202D01DB7F2D00DD77
:103510002025A5F12000C5B2002427E005EB850099
:10352000FE490844005D01900098C6B2002719E0EA
:10353000019800F0010040B1F219D1B208EB040289
:10354000D0B25246FFF716FE07E0F219D1B208EBEF
:103550000402D0B24A46FFF70DFE019840100190D8
:10356000781CC7B2072FE3DB601CC4B2052CD5DB87
:10357000BDE8FC8F2DE9FF4F85B080468A46934613
:103580004FF000090020029003E00298401CC0B2F6
:10359000029002981BF800000028F6D10898012834
:1035A00003D100900020019003E000200090012052
:1035B000019000BF1BF80900049009F101001BF8FD
:1035C000000003900498802872DD002717E007EBC5
:1035D000870000EB4710D24911F81010049881427F
:1035E0000BD107EB870000EB4710CD4901EB400002
:1035F00041780398814200D103E0781CC7B2022FC2
:10360000E5D300BF00266CE007EB870000EB471016
:10361000C34901EB4000801C06EB4601455C0024D9
:1036200012E005F080030BB1009B00E0019B1A46FD
:103630000AEB0603D9B208EB0403D8B2FFF79AFDF0
:103640006806050E601CC4B2082CEADB07EB870095
:1036500000EB4710B24901EB4000801C06EB46012D
:10366000491C455C002413E005F080030BB1009B6E
:1036700000E0019B1A460AEB0603D9B208EB0403EB
:103680000833D8B2FFF776FD6806050E601CC4B299
:10369000082CE9DB07EB870000EB4710A04901EBA2
:1036A0004000801C06EB4601891C455C002414E0A8
:1036B00022E005F080030BB1009B00E0019B1A465D
:1036C0000AEB0603D9B208EB04031033D8B2FFF7B4
:1036D00051FD6806050E601CC4B2082CE9DB701CA5
:1036E000C6B2182E90DB09F1020000F0FF0908F1C4
:1036F000180000F0FF080DE051464046089B049A70
:10370000FFF764FD09F1010000F0FF0908F10C006A
:1037100000F0FF0802988145FFF64CAF09B0BDE804
:10372000F08F2DE9FF4F85B007468A4693464FF04C
:1037300000090020029003E00298401CC0B20290F1
:1037400002981BF800000028F6D10898012803D140
:1037500000900020019003E00020009001200190E3
:1037600000BF1BF80900049009F101001BF80000DC
:1037700003900498802872DD002613E0C6EB461003
:10378000684911F810100498814209D1C6EB46101F
:10379000644901EB400041780398814200D103E085
:1037A000701CC6B2022EE9D300BF00256CE0C6EB48
:1037B00046105C4901EB4000801C05EB450110F808
:1037C0000180002413E008F080030BB1009B00E0AF
:1037D000019B1A460AEB0503D9B23B19D8B2FFF791
:1037E000C9FC4FEA48604FEA1068601CC4B2082C5C
:1037F000E9DBC6EB46104B4901EB4000801C05EBB2
:103800004501491C10F80180002414E008F08003F1
:103810000BB1009B00E0019B1A460AEB0503D9B2ED
:103820003B190833D8B2FFF7A5FC4FEA48604FEACE
:103830001068601CC4B2082CE8DBC6EB461039499E
:1038400001EB4000801C05EB4501891C10F801804C
:10385000002415E008F0800313B1009B01E01DE097
:10386000019B1A460AEB0503D9B23B191033D8B2B3
:10387000FFF780FC4FEA48604FEA1068601CC4B252
:10388000042CE7DB681CC5B2142D90DB09F10200A3
:1038900000F0FF0907F11400C7B20CE051463846AA
:1038A000089B049AFFF7EAFC09F1010000F0FF0908
:1038B00007F10A00C7B202988145FFF652AF09B07E
:1038C000BDE8F08F2DE9FF4F84B0074691464FF0D9
:1038D00000080020029003E00298401CC0B2029051
:1038E000029819F800000028F6D10798012803D1A2
:1038F00000900020019003E0002000900120019042
:1039000000BF19F808A008F1010019F800000390A1
:10391000BAF1800F70DD002518E000004A8500082C
:10392000B68400083A84000805EB0510FB4911F83D
:103930001000504508D105EB051001EB400041781F
:103940000398814200D103E0681CC5B2022DEBD37D
:1039500000BF002445E005EB0510F04901EB4000F5
:10396000801C10F814B0002613E00BF080030BB19C
:10397000009B00E0019B1A46059B2344D9B2BB196A
:10398000D8B2FFF7F7FB4FEA4B604FEA106B701CA1
:10399000C6B2082EE9DB05EB0510E04901EB40005B
:1039A000801C012101EB440110F801B0002614E055
:1039B0000BF080030BB1009B00E0019B1A46059BB6
:1039C0002344D9B2BB190833D8B2FFF7D3FB4FEA6F
:1039D0004B604FEA106B701CC6B2082EE8DB601C0F
:1039E000C4B2102CB7DB08F1020000F0FF0807F1A9
:1039F0001000C7B20DE0FFE752463846079B059915
:103A0000FFF794FC08F1010000F0FF0807F108003F
:103A1000C7B202988045FFF674AF08B0BDE8F08FDA
:103A20002DE9FF4F84B0074691464FF00008002073
:103A3000029003E00298401CC0B20290029819F86C
:103A400000000028F6D10798012803D1009000203B
:103A5000019003E0002000900120019000BF19F8C0
:103A600008A008F1010019F800000390BAF1800FD6
:103A700068DD002511E0C5EB0510A94911F810001B
:103A8000504508D1C5EB051001EB40004178039883
:103A9000814200D103E0681CC5B2092DEBD300BF01
:103AA000002445E0C5EB05109D4901EB4000801C5A
:103AB00010F814B0002613E00BF080030BB1009B4C
:103AC00000E0019B1A46059B2344D9B2BB19D8B22A
:103AD000FFF750FB4FEA4B604FEA106B701CC6B209
:103AE000082EE9DBC5EB05108D4901EB4000801C79
:103AF000012101EB440110F801B0002614E00BF0A5
:103B000080030BB1009B00E0019B1A46059B2344F8
:103B1000D9B2BB190833D8B2FFF72CFB4FEA4B6080
:103B20004FEA106B701CC6B2062EE8DB601CC4B2F4
:103B30000E2CB7DB08F1020000F0FF0807F10E00C1
:103B4000C7B20BE052463846079B0599FFF731FC98
:103B500008F1010000F0FF08F81DC7B20298804587
:103B6000FFF67DAF08B0BDE8F08F2DE9FF4F84B0C0
:103B7000804692464FF000090020029003E0029830
:103B8000401CC0B2029002981AF800000028F6D13A
:103B90000798012803D100900020019003E0002045
:103BA00000900120019000BF1AF809B009F101004E
:103BB0001AF800000390BBF1800F6FDD002615E0BE
:103BC00006EB860000EBC600564911F81000584578
:103BD0000AD106EB860000EBC60001EB40004178FD
:103BE0000398814200D103E0701CC6B2952EE7D342
:103BF00000BF002446E006EB860000EBC600494902
:103C000001EB4000801C10F81470002512E007F052
:103C100080030BB1009B00E0019B1A46059B2344E7
:103C2000D9B208EB0503D8B2FFF7A4FA7806070E5D
:103C3000681CC5B2082DEADB06EB860000EBC60067
:103C4000384901EB4000801C012101EB4401475C35
:103C5000002513E007F080030BB1009B00E0019BFF
:103C60001A46059B2344D9B208EB05030833D8B2A2
:103C7000FFF780FA7806070E681CC5B2042DE9DB51
:103C8000601CC4B20C2CB6DB09F1020000F0FF0985
:103C900008F10C0000F0FF080EE0FFE75A4640462E
:103CA000079B0599FFF7CAFB09F1010000F0FF0926
:103CB00008F1060000F0FF0802988145FFF674AF96
:103CC00008B0BDE8F08FF0B505460E4614461F4615
:103CD00008E022783B4631462846FFF7F4FB641C97
:103CE000A81DC5B220780028F3D1F0BD2DE9F04120
:103CF00004460D4616461F46AC4202DDA846254640
:103D0000444606E03A4631462046FFF733FA601C47
:103D1000C4B2AC42F6DBBDE8F0810000F6830008D7
:103D2000E8820008C67300082DE9F04180460C4681
:103D300015461E46AC4202DD2F4625463C4606E0AF
:103D4000324621464046FFF715FA601CC4B2AC4229
:103D5000F6DBBDE8F0812DE9F04F85B004460D4655
:103D600092469B46DDF83890002003900290AAEB23
:103D7000040007B2ABEB05000FFA80F8002F02DD5C
:103D8000012001900EE057B909F0FF030BF0FF028C
:103D9000E9B2E0B2FFF7C8FF05B0BDE8F08F4FF021
:103DA000FF300190B8F1000F02DD012000900EE01D
:103DB000B8F1000F08D109F0FF03EAB20AF0FF01E1
:103DC000E0B2FFF793FFE7E74FF0FF300090381EB7
:103DD00001DB014600E041420FB2B8F1000001DB17
:103DE000014600E041420FFA81F8474501DD3E46B9
:103DF00000E0464609F0FF02E9B2E0B2FFF7BAF987
:103E00000020049025E009F0FF02E9B2E0B2FFF7DC
:103E1000B1F90398384400B203900298404400B2CC
:103E200002900398B04206DD0398801B00B2039015
:103E30000198204404B20298B04206DD0298801B2B
:103E400000B202900098284405B20498401C00B2C9
:103E50000490711C04988842D5DD00BF9CE72DE9D1
:103E6000F84180460D4616461F46079CB04501DCCA
:103E7000BD4201DDBDE8F8812B4632462946404669
:103E80000094FFF768FF3B463246394640460094AF
:103E9000FFF761FF3B464246294640460094FFF744
:103EA0005AFF3B463246294630460094FFF753FFFF
:103EB00000BFDFE72DE9F04306460F469046B8F114
:103EC0001F0F02DCB8F1000F01D1BDE8F083002420
:103ED00045464FEA4800C0F103000FFA80F958E068
:103EE0003A1BD1B2721BD0B20122FFF743F93A1B41
:103EF000D1B27219D0B20122FFF73CF97A19D1B2CE
:103F0000321BD0B20122FFF735F93A1BD1B2721B36
:103F1000D0B20122FFF72EF97A1BD1B2321BD0B2F8
:103F20000122FFF727F93A19D1B27219D0B2012252
:103F3000FFF720F97A1BD1B23219D0B20122FFF774
:103F400019F97A19D1B23219D0B20122FFF712F958
:103F50003A19D1B2721BD0B20122FFF70BF9601CE3
:103F600004B2B9F1000F05DAA000801D48440FFA31
:103F700080F907E0601B80000A3048440FFA80F99E
:103F8000681E05B27A19D1B23219D0B20122FFF7F8
:103F9000F1F8AC42A4DD00BF97E72DE9F0470546F4
:103FA0000E4617469846DDF820A0BD4201DC464586
:103FB00001DDBDE8F0872C460EE0B14608E0524630
:103FC00049462046FFF7D6F809F1010000F0FF0945
:103FD000C145F4DB601CC4B2BC42EEDB00BFE8E7C5
:103FE000024600200BE0002105E0A04B03EBC013CC
:103FF0005A544B1CD9B28029F7DB431CD8B208288D
:10400000F1DB70472DE9FC430746884614461E46FF
:10401000DDF824900025002C06DA64422D22284683
:10402000691CCDB20DF80020B4F57A7F0FDB4FF498
:104030007A7094FBF0F00A2190FBF1F201FB120080
:104040003030C2B22846691CCDB20DF80020632C76
:104050000EDD642094FBF0F00A2190FBF1F201FBED
:1040600012003030C2B22846691CCDB20DF80020D3
:10407000092C0EDD0A2094FBF0F00A2190FBF1F2EE
:1040800001FB12003030C2B22846691CCDB20DF8D7
:1040900000200A2094FBF0F100FB11403030C2B246
:1040A0002846691CCDB20DF8002004E020200DF850
:1040B0000500681CC5B2B542F8DB00200DF805000C
:1040C0004B466A4641463846FFF74FFDBDE8FC8344
:1040D0002DE9FC4106460F46154698460024002D62
:1040E00006DA6D422D222046611CCCB20DF800206C
:1040F000B5F57A7F0FDB4FF47A7095FBF0F00A216B
:1041000090FBF1F201FB12003030C2B22046611C7C
:10411000CCB20DF80020632D0EDD642095FBF0F08D
:104120000A2190FBF1F201FB12003030C2B22046AE
:10413000611CCCB20DF800200A2095FBF0F00A219A
:1041400090FBF1F201FB12003030C2B22046611C3C
:10415000CCB20DF800202E222046611CCCB20DF806
:1041600000200A2095FBF0F100FB11503030C2B264
:104170002046611CCCB20DF8002004E020200DF890
:104180000400601CC4B2052CF8DB00200DF804000C
:1041900043466A4639463046FFF7E7FCBDE8FC81F6
:1041A000FCB506460F4615460024002D06DA6D4282
:1041B0002D222046611CCCB20DF80020B5F57A7F87
:1041C0000FDB4FF47A7095FBF0F00A2190FBF1F2CF
:1041D00001FB12003030C2B22046611CCCB20DF897
:1041E0000020632D0EDD642095FBF0F00A2190FB8A
:1041F000F1F201FB12003030C2B22046611CCCB299
:104200000DF800200A2095FBF0F00A2190FBF1F256
:1042100001FB12003030C2B22046611CCCB20DF856
:1042200000202E222046611CCCB20DF800200A206E
:1042300095FBF0F100FB11503030C2B22046611CFA
:10424000CCB20DF8002004E020200DF80400601C22
:10425000C4B2042CF8DB00200DF8040001236A46E8
:1042600039463046FFF72FFDFCBD00003802002024
:10427000F448C06940F00100F249C8610846C069CD
:1042800040F00400C8610846806940F00800886179
:10429000ED48006820F07F40EB4908600846006860
:1042A00040F0884008600020E84908804FF6FF7021
:1042B000091D0880E5482838008820F44070E3494B
:1042C000283908800846008820F060000880DF4810
:1042D0001038008840F00100DC4910390880084699
:1042E000008840F480700880D8480838008820F0A2
:1042F0000200D649083908800846008820F02000CE
:104300000880D2481038008840F03000CF4910397A
:1043100008800846008840F440500880CB48203888
:10432000008840F00300C94920390880C748283870
:10433000008840F00100C549283908807047C1480D
:10434000C06940F00100BF49C8610846C06940F03B
:104350000200C8610846806940F004008861BC48DA
:10436000006820F07F40BA4908600846006840F0C5
:10437000884008600020B74908804FF6FF70091D8B
:104380000880B4482838008820F44070B1492839A2
:1043900008800846008820F060000880AD4810388A
:1043A000008840F00100AB491039088008460088B9
:1043B00040F480700880A7480838008820F0020088
:1043C000A449083908800846008820F020000880A9
:1043D000A0481038008840F030009E49103908800D
:1043E0000846008840F4405008809A4820380088E9
:1043F00040F0030097492039088096482838008803
:1044000040F0010093492839088070478D48C06901
:1044100040F001008B49C8610846806940F0040003
:1044200088610846806940F0080088618848001D5E
:10443000006820F070408649091D08600846006841
:1044400040F0804008608048006820F470407E4959
:1044500008600846006840F48040086000204FF083
:10446000804108854FF6FF7088850846008820F453
:10447000407008800846008820F0600008800846E8
:10448000008B40F0010008830846008B40F48070E8
:1044900008830846008C20F0020008840846008C3F
:1044A00020F0200008840846008B40F0300008838C
:1044B0000846008B40F4405008830846008940F0CD
:1044C000030008810846008840F00100088070471A
:1044D0005C48C06940F001005A49C86108468069DB
:1044E00040F4005088610846806940F010008861FF
:1044F0005948006820F07F40574908600846006826
:1045000040F0884008600020544908804FF6FF7052
:10451000091D088051482838008820F440704F4910
:10452000283908800846008820F0600008804B4841
:104530001038008840F001004849103908800846CA
:10454000008840F48070088044480838008820F0D3
:1045500002004249083908800846008820F02000FF
:1045600008803E481038008840F030003B49103940
:1045700008800846008840F44050088037482038BA
:10458000008840F003003549203908803348283836
:10459000008840F00100314928390880704700B593
:1045A000FFF796FFFFF732FFFFF7C9FEFFF760FE48
:1045B00000BD4FF08040808C00B229490880002067
:1045C0004FF0804188842548001F008800B22449AC
:1045D000488000202149091F08801E48001F0088CC
:1045E00000B21F49888000201A49091F0880174817
:1045F000001F008800B21A49C88000201349091F13
:1046000008801848008816490988084400B21549EE
:1046100008800846408812494988084400B2114978
:104620004880084680880E498988084400B20D49B0
:1046300088800846C0880A49C988084400B20949E8
:10464000C880704700100240000C0140280800405C
:1046500000080140280400400010014028340140B7
:10466000760000207E00002010B51248806940F0DE
:104670000800104988611048006820F0FF000E49CA
:1046800008600846006840F0880008600A480C305E
:10469000006840F0030008490C3108600122002145
:1046A000104600F06CF9022306220321184600F0A0
:1046B00031F910BD00100240000C014010B529482E
:1046C000806940F01000274988612748006820F081
:1046D000F000254908600846006840F03000086096
:1046E0000020224908604FF4347141F28830FDF710
:1046F00015FBFFF7B9FF10BD10B501201B4908607D
:10470000642000F0CAF800201949C1F88401194852
:10471000007818B14FF4FA70174908600120154964
:10472000087000201549088014482438008840F09B
:10473000010012492439088010BD104800880E4934
:1047400008600846006800EB00106421B0FBF1F03F
:10475000C01F094908600020064908700120084967
:10476000086070470010024000100140840122429E
:10477000000022428C000020880000202414004009
:104780001404014008B501210820FCF7F7F848F2AD
:104790000220ADF8000048208DF80300694621484A
:1047A000FBF730FE08BD10B51F48006801280FD187
:1047B0001D483838006858B91B4818380068012867
:1047C00006D11A4B5A4211461846FEF7EDF927E07A
:1047D0001548006888B914483838006801280CD199
:1047E000114818380068012807D14FF4FA631A46B7
:1047F00019461846FEF7D8F912E00B480068012860
:104800000ED1094838380068012809D106481838FF
:10481000006828B9054B1A4619461846FEF7C4F930
:1048200010BD0000000C01403C81214230F8FFFF28
:1048300030B528480068284AB0FBF2F1B1F1807F1A
:1048400001D301201DE021F07F40401E4FF0E02207
:10485000506150170F22002807DA13071D0E1F4B57
:1048600000F00F04241F1D5503E013071C0E1C4B02
:104870001C5400BF00204FF0E0229061072010611F
:10488000002008B100BFFEE74FF0E020006920F0F3
:1048900001004FF0E021086130BD002106E00A214F
:1048A00000BF0A1EA1F1010399B2FAD1021EA0F1C4
:1048B0000100F4D17047002107E042F6E06100BF3B
:1048C0000A1EA1F1010399B2FAD1021EA0F1010062
:1048D000F3D170479000002040420F0018ED00E037
:1048E00000E400E0A14A0A400243A14B1A6070476D
:1048F0000146072323EA010212029D4B1B1D186883
:104900004FF6FF0318409B4B18431043984B1B1D59
:10491000186070472DE9F0410746884614461D4649
:104920002846FFF7E5FFC5F1040007FA00F60F205F
:10493000284100EA0800064306F00F06202C09DA99
:104940008D4800680121A14008434FF0E021C1F8E3
:1049500000010BE08848001D0068A4F1200101223D
:104960008A4010434FF0E021C1F804018348005D04
:1049700040EA0610C1B281480155BDE8F08170B52A
:1049800004460B46CE1701EB9676C6F38700CE178A
:1049900001EB9676B610A1EB8606B606350E784B7F
:1049A0009B6943F00103764EB3614FEAB63353F887
:1049B00020300F26AE40B343724E46F820303346C7
:1049C00053F8203004FA05F61E436E4B43F820607E
:1049D0006D4B1B6801268E4033436B4E336002F0F3
:1049E000010343B1684B0C331B6801268E403343EF
:1049F000654E0C36336002F0020343B1624B08335C
:104A00001E6801238B401E435F4B08331E6070BD40
:104A100000B500205A490861C86014204861002090
:104A20008861C8610846006840F0010008600846D7
:104A30004068564908405249486008460068544951
:104A400008404F4908600846006820F4802008604C
:104A50000846406820F4FE0048600020886000217D
:104A60004FF00060FFF73EFF00BD10B54048083032
:104A7000006840F004003E49083108604048C069C1
:104A800040F080503E49C8614248406840F4807020
:104A9000404948600846006840F004000860084645
:104AA000006840F002000860FBF7B8FB10BD314819
:104AB000001D2F49091D0860704701464906304A0C
:104AC000926942F001022E4B9A612E4A083A5268CE
:104AD00022F0E0622B4B083B5A601A4652680A43A8
:104AE0005A60704730B504460025FFF791FF24480F
:104AF000006840F480302249086000BF2048006808
:104B0000400C0028FAD04FF480601D494860A01E78
:104B1000C4B20846406840EA84404860084640689D
:104B200040F4803048601C48006840F032001A4968
:104B300008601348006840F080701149086000BFA9
:104B40000F480068400E0028FAD00D48406840F039
:104B500002000B49486005E009484068C0F387053A
:104B600005F00305022DF7D130BD000080FFFF1FC7
:104B700008ED00E00000FA0500E100E000E400E0DC
:104B80000010024008000140000401400000FFF84E
:104B9000FFFFF6FE00700040002002400CB5002030
:104BA000019000906C48006840F480306A490860C9
:104BB00000BF6948006800F4003000900198401C74
:104BC0000190009818B90198B0F5A06FF1D1624832
:104BD000006800F4003010B10120009001E00020D6
:104BE00000900098012843D15C48006840F0100014
:104BF0005A4908600846006820F00300086008462B
:104C0000006840F00200086053484068524948601C
:104C10000846406848600846406840F48060486044
:104C20000846406820F47C1048600846406840F41C
:104C3000E81048600846006840F08070086000BFD7
:104C40004548006800F000700028F9D042484068EC
:104C500020F00300404948600846406840F00200E8
:104C6000486000BF3C48406800F00C000828F9D1BB
:104C70000CBD10B5FFF792FF10BD10B536480068A7
:104C800040F0010034490860084640683449084053
:104C90003149486008460068324908402E4908609A
:104CA0000846006820F4802008600846406820F428
:104CB000FE0048604FF41F008860FFF7DAFF4FF0F6
:104CC00000602949086010BD10B5002100200022B5
:104CD000214B5B6803F00C0121B1042906D008299F
:104CE00028D107E0214B224C236027E01F4B204CAA
:104CF000236023E0184B5B6803F47010164B5B686D
:104D000003F48032022303EB904022B9194B434352
:104D1000174C23600DE0104B5B6803F4003323B1A4
:104D2000144B4343124C236003E0104B4343104C9D
:104D3000236003E00D4B0E4C236000BF00BF064B09
:104D40005B68C3F303130C4CE15C094B1B68CB405D
:104D5000074C236010BD00000010024000200240FC
:104D60000000FFF8FFFFF6FE08ED00E000127A00F9
:104D70009000002000093D0094000020014600BF83
:104D8000704700BFC44A128802F04002002AF9D0DE
:104D9000C2B2C14B1B1D1A80704708B54FF4A0600A
:104DA000FBF762FA25208DF8000001208DF8010044
:104DB00000208DF8020001208DF803006846FBF703
:104DC00058FA08BD08B54FF4A060FBF74DFA26204D
:104DD0008DF8000001208DF801008DF802008DF89B
:104DE00003006846FBF745FA08BD08B54FF4A0601C
:104DF000FBF73AFA27208DF8000001208DF801001A
:104E000002208DF8020001208DF803006846FBF7B0
:104E100030FA08BD08B5012144F20400FBF7AEFDED
:104E20004FF40070ADF8000003208DF80200182048
:104E30008DF8030069469948FBF7E4FA4FF4806067
:104E4000ADF8000004208DF8030069469348FBF795
:104E5000D9FA08BD08B501210420FBF78FFD012117
:104E60004804FBF798FD0420ADF8000003208DF8FE
:104E7000020018208DF8030069468848FBF7C2FA43
:104E80000820ADF8000004208DF80300694683482F
:104E9000FBF7B8FA08BD08B501210820FBF76EFD45
:104EA00001218804FBF777FD4FF48060ADF8000026
:104EB00003208DF8020018208DF803006946784819
:104EC000FBF7A0FA4FF40060ADF8000004208DF865
:104ED000030069467248FBF795FA08BD10B5044611
:104EE000012C04D1FFF759FFFFF794FF0CE0022CCF
:104EF00004D1FFF767FFFFF7ADFF05E0032C03D1F7
:104F0000FFF773FFFFF7C7FF10BD7FB505460C46DF
:104F100000940020ADF80400ADF80600ADF80800DC
:104F2000ADF80C000C20ADF80A0069462846FCF7E5
:104F3000DAFC012240F225512846FCF76CFD0121E4
:104F40002846FCF75CFD7FBD1FB504460094002099
:104F5000ADF80400ADF80600ADF80800ADF80C009F
:104F60000C20ADF80A0069464B48FCF7BCFC012256
:104F700040F225514848FCF74EFD01214648FCF718
:104F80003EFD1FBD70B504460D4629462046FCF780
:104F9000A3FD00BF40212046FCF70CFE0028F9D0FD
:104FA00070BD70B506460C46002505E014F8011BDF
:104FB0003046FFF7E7FF6D1C207810B1B5F5FA7F9A
:104FC000F4D370BD70B504460D460BE000BF324807
:104FD000008800F040000028F9D014F8011B2E488A
:104FE000FCF77AFD281EA5F10101CDB2EED170BD0E
:104FF00010B540F225512848FCF7F2FD20B140F2EF
:1050000025512548FCF716FE10BD10B540F225517C
:105010002448FCF7E5FD20B140F225512148FCF77A
:1050200009FE10BD10B540F225511F48FCF7D8FD10
:1050300088B340F225511C48FCF7FCFD1A48FCF7E8
:105040004FFDC4B21948007828BB194819490968AE
:10505000445418480068401C164908600846006817
:10506000401E1349085C0D280AD012480068401EF3
:10507000085C3E2804D00F480068B0F5FA7F0AD9D2
:1050800000200B490B4A1268885401200749087018
:1050900000200849086010BD0038014000080140A8
:1050A000000C01400044004000480040A4000020E3
:1050B00038060020AC0000200920FFF713FD022075
:1050C000FFF7FBFC3E48406840F480703C49486074
:1050D000FCF73FFEFCF743FE0320FFF7FFFE4821ED
:1050E00041F28830FCF7FDFD4FF4E1313548FFF720
:1050F0000CFFFCF753FFFDF799FEFDF77CFBFDF776
:10510000FCFCFFF74CFA00F0FDFB00231A461946A1
:105110001846FDF749FDFDF7C3FDFDF766FFFFF7F4
:10512000CDFA0120284908700020284908804880CD
:10513000888000BF00F0C2FC0028FBD12448007822
:10514000012802D1FCF720FE05E021480078032861
:1051500001D1FFF717FB31E0FDF7DDFF1D480078B7
:1051600060B31B4800780F2823D2DFE800F0080B5B
:105170000E1114171A1B1C221D1E1F20210000F0E7
:105180009DFC17E000F023FD14E000F0B4FD11E0F9
:1051900000F030FE0EE000F0C7FE0BE000F054FF20
:1051A00008E007E006E005E004E000BF00BF00BF44
:1051B00000E000BF00BF002006490870CCE70000F7
:1051C0000000014000480040D5000020D60000202B
:1051D000CF000020DC000020704700BFFEE700BFCA
:1051E000FEE700BFFEE700BFFEE77047704770476D
:1051F000704710B501210748FCF71DFB48B101219C
:105200000448FCF729FBFDF7E8FB01210148FCF706
:105210000FFB10BD002C014010B543420B4413445A
:10522000FE4C24686343FE4C2360431A1344FB4C3A
:10523000A4686343FA4CA36043425B1A1344F74CDF
:1052400064686343F64C636043181344F34CE468AA
:105250006343F34CE36010BD70B5FDF716FAF148F7
:1052600000787F3800EB4000052190FBF1F4EE4818
:105270000078C0F17F0000EB400090FBF1F50022C8
:1052800021462846FFF7C8FF70BD10B5E748006803
:10529000462806D3E64B5A4211461846FDF784FCD1
:1052A00016E0E248006832280BD9E048006846283A
:1052B00007D24FF4FA631A4619461846FDF774FCF4
:1052C00006E04FF4FA635A4211461846FDF76CFCAB
:1052D00010BD2DE9F0410620FCF74EFED5490880AF
:1052E0000520FCF749FED34948800720FCF744FE1F
:1052F000D04988800846B0F90000C0F17F0000EB7B
:105300004000052190FBF1F6CA48B0F902007F3851
:1053100000EB400090FBF1F7C648B0F90400A0F1A3
:105320007F0505EBD570421031463846FFF774FF14
:10533000C1480068401F0C2873D2DFE800F0121E3D
:10534000062A738B667F365A424EBC484488A01C9E
:1053500084B240F6C410844200DB0446B74844805F
:1053600085E0B6484488A01E84B2B4F5FA7F01DC1B
:105370004FF4FA74B148448079E0B0480488A01C26
:1053800084B240F6C410844200DB0446AB4804807B
:105390006DE0AA480488A01E84B2B4F5FA7F01DC4F
:1053A0004FF4FA74A548048061E0A4488488A01CE6
:1053B00084B240F6C410844200DB04469F488480D7
:1053C00055E09E488488A01E84B2B4F5FA7F01DCC3
:1053D0004FF4FA749948848049E09848C488A01C26
:1053E00084B240F6C410844200DB04469348C48073
:1053F0003DE09248C488A01E84B2B4F5FA7F01DC77
:105400004FF4FA748D48C48031E08C480489A01CA4
:1054100084B240F6C410844200DB0446874804810D
:1054200025E023E085480489A01E84B2B4F5FA7F04
:1054300001DC4FF4FA748148048118E07F48448904
:10544000A01C84B240F6C410844200DB04467B48B2
:1054500044810CE079484489A01E84B2B4F5FA7FF7
:1054600001DC4FF4FA747548448100E000BF00BFCE
:10547000BDE8F08170B506460D4614462946304613
:1054800001F0FAFD01D2284670BD2146304601F0F8
:10549000F3FC01D22046F7E73046F5E72DE9FF5F40
:1054A0006748008A00F00100002878D00120654993
:1054B000087065480078401CC0B263490870042831
:1054C00003DB00200870FDF712F9FDF797FC054695
:1054D00001F0A6FC04465D480168204601F000FB8F
:1054E0005A4908604FF07E515948006801F0F8FAB7
:1054F000574904460860574901F022FC0ED155492E
:105500005248006801F05AFB044601F069FC524918
:10551000086000204D4908604D4908604F48006808
:1055200050B94F480088B0F5967F20DA4C48008883
:10553000401C4B4908801AE0494800881E2809DDB4
:1055400047480088B0F5967F04DA01204549087085
:10555000FCF74FFD42480088B0F5967F04D1022049
:1055600040490870FCF745FD00203D4908803E4851
:105570000078082804DA3C480078401C3A49087052
:105580003948007804280ED13848007801280AD11B
:10559000FCF75BFC20B901203549087003E0A9E164
:1055A0000020334908703048007808280DD12F4872
:1055B0000078012806D12E48007818B1FCF7B9FC14
:1055C0001D4908600020284908702A480078401CBE
:1055D000284908700846007804287DD1002008700A
:1055E000FEF7E7FF24480078002875D00020234903
:1055F000087042E122482149097830F91100084930
:105600001E4A127851F82210401A1C49097801EB01
:1056100081011C4A02EBC101086235E03C08002010
:105620002C080020B2000020B300002088000020D9
:1056300030F8FFFFD6000020C80000204E000020F8
:1056400000100040DC000020C7000020BC0000204B
:10565000B80000200000C842D00000200001224213
:10566000CC000020CE000020C5000020CF0000208C
:10567000C6000020C4000020B4000020C0000020AC
:10568000760000204C080020DA49097801EB8101FE
:1056900002EBC101086A01F0C3FB0446D54800785B
:1056A00000EB8000D44A52F83010204601F018FC7C
:1056B000D049097801EB8101CF4A02EBC101486072
:1056C000CC49097801EB810102EBC101086A00F0C5
:1056D000DBFF04460D4600E0EEE0C649097801EB29
:1056E0008101C54A02EBC101886801F0CDF980460D
:1056F000C24AC34B00F0E0FF064622462B4600F0AC
:10570000DBFF82468B46BB49097801EB8101BA4A2F
:1057100002EBC101086901F0B7F952465B46CDE9D9
:10572000000100F009FFCDE9020100F0D3FEB1490C
:10573000097801EB8101B04A02EBC1010861AD4972
:10574000097801EB810102EBC101AE4A0869AE495B
:10575000FFF790FEA749097801EB8101A64A02EB09
:10576000C1010861A349097801EB810102EBC10184
:10577000096AA04A127802EB82029F4B03EBC20235
:10578000526A881A00F080FF82468B469949097850
:1057900001EB8101984A02EBC101486901F074F9FB
:1057A0008046964A964B00F087FF064652465B4677
:1057B00000F082FF044600F08DFE8E49097801EB6F
:1057C00081018D4A02EBC10188618A48007800EBB3
:1057D0008000114601EBC000006A8649097801EBA0
:1057E000810102EBC1014862824A127802EB820217
:1057F000814B03EBC20211697E4A127802EB8202EE
:1058000003EBC202506801F06BF905467948007855
:1058100000EB8000784A02EBC0008169284601F065
:105820005FF904467348007800EB8000724A02EB8F
:10583000C000C169204601F053F96E49097801EBB7
:1058400081016D4A02EBC101C8616A49097801EB27
:10585000810102EBC1016D4AC8696D49FFF70AFE7B
:105860006449097801EB8101634A02EBC101C86117
:1058700060480078401C5F4908705E480078042842
:10588000FFF6B8AE5C49D1F8940001F08DFA0446F9
:105890005949C86E01F088FA05465749486C01F02D
:1058A00083FA06465449C86901F07EFA0746234642
:1058B0002A463146FDF778F956480078022801D18A
:1058C000FCF7E3FE53480078012801D1FFF701FD02
:1058D00050480078032801D1FEF765FF4D48007855
:1058E000042801D1FFF7D1FC4A480078052801D1EE
:1058F000FFF7B2FC4848008A20F0010046490882C0
:10590000BDE8FF9F4FF083403B490860002088605E
:105910004FF0814048614FF0834088620021364853
:1059200001634FF08141C1634FF083403249086504
:105930000021314881654FF0814141664FF083403D
:105940002D49886700212C48C0F880104FF0814114
:10595000C0F88C1001203149086048608860C86038
:105960000020254908610021234881630166C0F8B1
:10597000881000202049C86100211F484164C16689
:10598000C0F8941000201C49086200211A48816464
:105990000167C0F898100020174948620021164896
:1059A000C1644167C0F89C1070472DE9FC5F064652
:1059B0000F4614461D46DDF830803946204601F07A
:1059C0008DFB83462946404601F088FB59460090EE
:1059D00001F0F4F882463946304601F07FFB51462B
:1059E000019001F07DFA8146294601F079F8BDE881
:1059F000FC9F0000C00000204C0800209A99999953
:105A00009999A93F000048C30000484300B88FC5DA
:105A100000B88F45CF000020001000403C08002057
:105A200010B50446012C06D101233E220F2100208F
:105A3000FDF749FD05E0012320220F210020FDF79D
:105A400042FD022C06D101233E220F214220FDF708
:105A50003AFD05E0012320220F214220FDF733FD0E
:105A6000032C06D101233E221C210020FDF72BFD33
:105A700005E0012320221C210020FDF724FD042C39
:105A800006D101233E221C214220FDF71CFD05E02A
:105A9000012320221C214220FDF715FD052C06D1F3
:105AA00001233E2229210020FDF70DFD05E0012301
:105AB000202229210020FDF706FD10BD10B5FE486B
:105AC000007801283AD10020FEF78AFAFB480078D6
:105AD00000EB800101EBC000F949421801230021CD
